:060000000A128A11F82F1C
:100DE2000130F0020030031CF103F102700A031D0E
:100DF200FE2E710A031DFE2EFF2EF12E0800F300B7
:100E02007318042F082F8312031309140B2F831254
:100E120003130910720888000A128A1113270A1292
:100E22008A1108008312031389146430F000003021
:100E3200F1000A128A11F1260A128A11831203138F
:100E420089106430F0000030F1000A128A11F12694
:100E52000A128A1108008312031387018601850191
:100E62000F308316031385000F308600831203139D
:100E720089018316031389018801831203138801F0
:100E820083160317890188018316031387013830FB
:100E9200FF007F08F20000300A128A1100270A12AE
:100EA2008A110E30FF007F08F20000300A128A1108
:100EB20000270A128A1183120313051C612F622F65
:100EC200642FF701F801851C672F682F6C2F013002
:100ED200F7000030F800051D6F2F702F742F0230BD
:100EE200F7000030F800851D772F782F7C2F033014
:100EF200F7000030F80006187F2F802F822FF501AF
:100F0200F6018618852F862F8A2F0130F5000030D2
:100F1200F60006198D2F8E2F922F0230F500003029
:100F2200F6008619952F962F9A2F0330F500003080
:100F3200F60076087806031DA02F75087706031DB4
:100F4200A32FA42FA62F871007107608803AF4004B
:100F52007808803A7402031DB02F770875020318CF
:100F6200B32FB42FB82F83120313071487107808F6
:100F7200803AF4007608803A7402031DC22F750885
:100F820077020318C52FC62FCA2F831203138714A3
:100F920007108030FF007F08F20000300A128A1129
:100FA20000270A128A117708303EFF007F08F200FC
:100FB20001300A128A1100270A128A11C030FF007A
:100FC2007F08F20000300A128A1100270A128A11E1
:100FD2007508303EFF007F08F20001300A128A11C4
:100FE20000270A128A115C2F0A128A110028F501C1
:0E0FF200F601F701F80183010A128A112C2F73
:08400000FF3FFF3FFF3FFF3FC0
:04400E00E42CFF3F60
:00000001FF
